:020000040000FA
:100000000128FF3083160313850085018312031333
:100010008501860183160313860183160313880165
:10002000870183120313880187017A2049309F00DA
:100030008316031380309F008030722083120313D5
:10004000880026208320013072201C2854306A202A
:1000500045306A204D306A2050306A2045306A2091
:1000600052306A2041306A2054306A2055306A206C
:1000700052306A2045306A203A306A2020306A20A7
:100080005020831203132608831203138600303E88
:100090006A2025080F39303E6A2043306A20080064
:1000A000831203131F151F195328831203139E0C69
:1000B000831603131E0C831203135F200800A6018E
:1000C000A5000A302502031C6828A500A60A61289D
:1000D0000034080007148710071583208800832048
:1000E0000711080007108710071583208800832058
:1000F0000711080038307220063072200F3072204D
:10010000013072200800A4007F30A0005530A1000B
:0C011000A10B8828A00B862824080800FA
:04011C000034003477
:02400E00313F40
:00000001FF
