:020000040000FA
:1000000083160313880183160313870183120313D6
:1000100088013F3087010714871407150716003041
:10002000A200A301A4012208412088002308412046
:100030008700A2191F283820A20AA40A1328A21890
:1000400025283820A20AA40A1328A401A201A30A81
:10005000230841208700A3192E281328A31831282C
:100060001328A301A401A2018001412087001328C5
:10007000FF30A000FF30A100A10B3C28A00B3A28C4
:1000800008008207FC346034DA34F2346634B63463
:08009000BE34E034FE34F63406
:0400980000340034FC
:02400E00313F40
:00000001FF
